{
  "_format": "hh-sol-artifact-1",
  "contractName": "GMONAD",
  "sourceName": "contracts/GMONAD.sol",
  "abi": [
    {
      "inputs": [
        {
          "internalType": "address",
          "name": "initialOwner",
          "type": "address"
        },
        {
          "internalType": "string",
          "name": "baseURI",
          "type": "string"
        }
      ],
      "stateMutability": "nonpayable",
      "type": "constructor"
    },
    {
      "inputs": [
        {
          "internalType": "address",
          "name": "sender",
          "type": "address"
        },
        {
          "internalType": "uint256",
          "name": "tokenId",
          "type": "uint256"
        },
        {
          "internalType": "address",
          "name": "owner",
          "type": "address"
        }
      ],
      "name": "ERC721IncorrectOwner",
      "type": "error"
    },
    {
      "inputs": [
        {
          "internalType": "address",
          "name": "operator",
          "type": "address"
        },
        {
          "internalType": "uint256",
          "name": "tokenId",
          "type": "uint256"
        }
      ],
      "name": "ERC721InsufficientApproval",
      "type": "error"
    },
    {
      "inputs": [
        {
          "internalType": "address",
          "name": "approver",
          "type": "address"
        }
      ],
      "name": "ERC721InvalidApprover",
      "type": "error"
    },
    {
      "inputs": [
        {
          "internalType": "address",
          "name": "operator",
          "type": "address"
        }
      ],
      "name": "ERC721InvalidOperator",
      "type": "error"
    },
    {
      "inputs": [
        {
          "internalType": "address",
          "name": "owner",
          "type": "address"
        }
      ],
      "name": "ERC721InvalidOwner",
      "type": "error"
    },
    {
      "inputs": [
        {
          "internalType": "address",
          "name": "receiver",
          "type": "address"
        }
      ],
      "name": "ERC721InvalidReceiver",
      "type": "error"
    },
    {
      "inputs": [
        {
          "internalType": "address",
          "name": "sender",
          "type": "address"
        }
      ],
      "name": "ERC721InvalidSender",
      "type": "error"
    },
    {
      "inputs": [
        {
          "internalType": "uint256",
          "name": "tokenId",
          "type": "uint256"
        }
      ],
      "name": "ERC721NonexistentToken",
      "type": "error"
    },
    {
      "inputs": [
        {
          "internalType": "address",
          "name": "owner",
          "type": "address"
        }
      ],
      "name": "OwnableInvalidOwner",
      "type": "error"
    },
    {
      "inputs": [
        {
          "internalType": "address",
          "name": "account",
          "type": "address"
        }
      ],
      "name": "OwnableUnauthorizedAccount",
      "type": "error"
    },
    {
      "inputs": [],
      "name": "ReentrancyGuardReentrantCall",
      "type": "error"
    },
    {
      "anonymous": false,
      "inputs": [
        {
          "indexed": true,
          "internalType": "address",
          "name": "owner",
          "type": "address"
        },
        {
          "indexed": true,
          "internalType": "address",
          "name": "approved",
          "type": "address"
        },
        {
          "indexed": true,
          "internalType": "uint256",
          "name": "tokenId",
          "type": "uint256"
        }
      ],
      "name": "Approval",
      "type": "event"
    },
    {
      "anonymous": false,
      "inputs": [
        {
          "indexed": true,
          "internalType": "address",
          "name": "owner",
          "type": "address"
        },
        {
          "indexed": true,
          "internalType": "address",
          "name": "operator",
          "type": "address"
        },
        {
          "indexed": false,
          "internalType": "bool",
          "name": "approved",
          "type": "bool"
        }
      ],
      "name": "ApprovalForAll",
      "type": "event"
    },
    {
      "anonymous": false,
      "inputs": [
        {
          "indexed": false,
          "internalType": "uint256",
          "name": "_fromTokenId",
          "type": "uint256"
        },
        {
          "indexed": false,
          "internalType": "uint256",
          "name": "_toTokenId",
          "type": "uint256"
        }
      ],
      "name": "BatchMetadataUpdate",
      "type": "event"
    },
    {
      "anonymous": false,
      "inputs": [
        {
          "indexed": true,
          "internalType": "address",
          "name": "owner",
          "type": "address"
        },
        {
          "indexed": false,
          "internalType": "uint256",
          "name": "amount",
          "type": "uint256"
        }
      ],
      "name": "FundsWithdrawn",
      "type": "event"
    },
    {
      "anonymous": false,
      "inputs": [
        {
          "indexed": false,
          "internalType": "uint256",
          "name": "_tokenId",
          "type": "uint256"
        }
      ],
      "name": "MetadataUpdate",
      "type": "event"
    },
    {
      "anonymous": false,
      "inputs": [
        {
          "indexed": true,
          "internalType": "address",
          "name": "to",
          "type": "address"
        },
        {
          "indexed": true,
          "internalType": "uint256",
          "name": "tokenId",
          "type": "uint256"
        },
        {
          "indexed": false,
          "internalType": "uint256",
          "name": "price",
          "type": "uint256"
        }
      ],
      "name": "NFTMinted",
      "type": "event"
    },
    {
      "anonymous": false,
      "inputs": [
        {
          "indexed": true,
          "internalType": "address",
          "name": "previousOwner",
          "type": "address"
        },
        {
          "indexed": true,
          "internalType": "address",
          "name": "newOwner",
          "type": "address"
        }
      ],
      "name": "OwnershipTransferred",
      "type": "event"
    },
    {
      "anonymous": false,
      "inputs": [
        {
          "indexed": true,
          "internalType": "address",
          "name": "from",
          "type": "address"
        },
        {
          "indexed": true,
          "internalType": "address",
          "name": "to",
          "type": "address"
        },
        {
          "indexed": true,
          "internalType": "uint256",
          "name": "tokenId",
          "type": "uint256"
        }
      ],
      "name": "Transfer",
      "type": "event"
    },
    {
      "inputs": [],
      "name": "MINT_PRICE",
      "outputs": [
        {
          "internalType": "uint256",
          "name": "",
          "type": "uint256"
        }
      ],
      "stateMutability": "view",
      "type": "function"
    },
    {
      "inputs": [
        {
          "internalType": "address",
          "name": "to",
          "type": "address"
        },
        {
          "internalType": "uint256",
          "name": "tokenId",
          "type": "uint256"
        }
      ],
      "name": "approve",
      "outputs": [],
      "stateMutability": "nonpayable",
      "type": "function"
    },
    {
      "inputs": [
        {
          "internalType": "address",
          "name": "owner",
          "type": "address"
        }
      ],
      "name": "balanceOf",
      "outputs": [
        {
          "internalType": "uint256",
          "name": "",
          "type": "uint256"
        }
      ],
      "stateMutability": "view",
      "type": "function"
    },
    {
      "inputs": [],
      "name": "emergencyWithdraw",
      "outputs": [],
      "stateMutability": "nonpayable",
      "type": "function"
    },
    {
      "inputs": [
        {
          "internalType": "uint256",
          "name": "tokenId",
          "type": "uint256"
        }
      ],
      "name": "getApproved",
      "outputs": [
        {
          "internalType": "address",
          "name": "",
          "type": "address"
        }
      ],
      "stateMutability": "view",
      "type": "function"
    },
    {
      "inputs": [],
      "name": "getContractBalance",
      "outputs": [
        {
          "internalType": "uint256",
          "name": "",
          "type": "uint256"
        }
      ],
      "stateMutability": "view",
      "type": "function"
    },
    {
      "inputs": [],
      "name": "getNextTokenId",
      "outputs": [
        {
          "internalType": "uint256",
          "name": "",
          "type": "uint256"
        }
      ],
      "stateMutability": "view",
      "type": "function"
    },
    {
      "inputs": [
        {
          "internalType": "address",
          "name": "owner",
          "type": "address"
        },
        {
          "internalType": "address",
          "name": "operator",
          "type": "address"
        }
      ],
      "name": "isApprovedForAll",
      "outputs": [
        {
          "internalType": "bool",
          "name": "",
          "type": "bool"
        }
      ],
      "stateMutability": "view",
      "type": "function"
    },
    {
      "inputs": [],
      "name": "mint",
      "outputs": [],
      "stateMutability": "payable",
      "type": "function"
    },
    {
      "inputs": [
        {
          "internalType": "uint256",
          "name": "tokenId",
          "type": "uint256"
        }
      ],
      "name": "mintWithTokenId",
      "outputs": [],
      "stateMutability": "payable",
      "type": "function"
    },
    {
      "inputs": [],
      "name": "name",
      "outputs": [
        {
          "internalType": "string",
          "name": "",
          "type": "string"
        }
      ],
      "stateMutability": "view",
      "type": "function"
    },
    {
      "inputs": [],
      "name": "owner",
      "outputs": [
        {
          "internalType": "address",
          "name": "",
          "type": "address"
        }
      ],
      "stateMutability": "view",
      "type": "function"
    },
    {
      "inputs": [
        {
          "internalType": "address",
          "name": "to",
          "type": "address"
        },
        {
          "internalType": "uint256",
          "name": "tokenId",
          "type": "uint256"
        }
      ],
      "name": "ownerMint",
      "outputs": [],
      "stateMutability": "nonpayable",
      "type": "function"
    },
    {
      "inputs": [
        {
          "internalType": "uint256",
          "name": "tokenId",
          "type": "uint256"
        }
      ],
      "name": "ownerOf",
      "outputs": [
        {
          "internalType": "address",
          "name": "",
          "type": "address"
        }
      ],
      "stateMutability": "view",
      "type": "function"
    },
    {
      "inputs": [],
      "name": "renounceOwnership",
      "outputs": [],
      "stateMutability": "nonpayable",
      "type": "function"
    },
    {
      "inputs": [
        {
          "internalType": "address",
          "name": "from",
          "type": "address"
        },
        {
          "internalType": "address",
          "name": "to",
          "type": "address"
        },
        {
          "internalType": "uint256",
          "name": "tokenId",
          "type": "uint256"
        }
      ],
      "name": "safeTransferFrom",
      "outputs": [],
      "stateMutability": "nonpayable",
      "type": "function"
    },
    {
      "inputs": [
        {
          "internalType": "address",
          "name": "from",
          "type": "address"
        },
        {
          "internalType": "address",
          "name": "to",
          "type": "address"
        },
        {
          "internalType": "uint256",
          "name": "tokenId",
          "type": "uint256"
        },
        {
          "internalType": "bytes",
          "name": "data",
          "type": "bytes"
        }
      ],
      "name": "safeTransferFrom",
      "outputs": [],
      "stateMutability": "nonpayable",
      "type": "function"
    },
    {
      "inputs": [
        {
          "internalType": "address",
          "name": "operator",
          "type": "address"
        },
        {
          "internalType": "bool",
          "name": "approved",
          "type": "bool"
        }
      ],
      "name": "setApprovalForAll",
      "outputs": [],
      "stateMutability": "nonpayable",
      "type": "function"
    },
    {
      "inputs": [
        {
          "internalType": "string",
          "name": "baseURI",
          "type": "string"
        }
      ],
      "name": "setBaseURI",
      "outputs": [],
      "stateMutability": "nonpayable",
      "type": "function"
    },
    {
      "inputs": [
        {
          "internalType": "bytes4",
          "name": "interfaceId",
          "type": "bytes4"
        }
      ],
      "name": "supportsInterface",
      "outputs": [
        {
          "internalType": "bool",
          "name": "",
          "type": "bool"
        }
      ],
      "stateMutability": "view",
      "type": "function"
    },
    {
      "inputs": [],
      "name": "symbol",
      "outputs": [
        {
          "internalType": "string",
          "name": "",
          "type": "string"
        }
      ],
      "stateMutability": "view",
      "type": "function"
    },
    {
      "inputs": [
        {
          "internalType": "uint256",
          "name": "tokenId",
          "type": "uint256"
        }
      ],
      "name": "tokenURI",
      "outputs": [
        {
          "internalType": "string",
          "name": "",
          "type": "string"
        }
      ],
      "stateMutability": "view",
      "type": "function"
    },
    {
      "inputs": [
        {
          "internalType": "address",
          "name": "from",
          "type": "address"
        },
        {
          "internalType": "address",
          "name": "to",
          "type": "address"
        },
        {
          "internalType": "uint256",
          "name": "tokenId",
          "type": "uint256"
        }
      ],
      "name": "transferFrom",
      "outputs": [],
      "stateMutability": "nonpayable",
      "type": "function"
    },
    {
      "inputs": [
        {
          "internalType": "address",
          "name": "newOwner",
          "type": "address"
        }
      ],
      "name": "transferOwnership",
      "outputs": [],
      "stateMutability": "nonpayable",
      "type": "function"
    }
  ],
  "bytecode": "0x608060405260016009553480156200001657600080fd5b5060405162001f9438038062001f94833981016040819052620000399162000149565b60408051808201825260068082526511d353d3905160d21b602080840182905284518086019095529184529083015283916000620000788382620002ce565b506001620000878282620002ce565b5050506001600160a01b038116620000b957604051631e4fbdf760e01b81526000600482015260240160405180910390fd5b620000c481620000e1565b506001600855600a620000d88282620002ce565b5050506200039a565b600780546001600160a01b038381166001600160a01b0319831681179093556040519116919082907f8be0079c531659141344cd1fd0a4f28419497f9722a3daafe3b4186f6b6457e090600090a35050565b634e487b7160e01b600052604160045260246000fd5b600080604083850312156200015d57600080fd5b82516001600160a01b03811681146200017557600080fd5b602084810151919350906001600160401b03808211156200019557600080fd5b818601915086601f830112620001aa57600080fd5b815181811115620001bf57620001bf62000133565b604051601f8201601f19908116603f01168101908382118183101715620001ea57620001ea62000133565b8160405282815289868487010111156200020357600080fd5b600093505b8284101562000227578484018601518185018701529285019262000208565b60008684830101528096505050505050509250929050565b600181811c908216806200025457607f821691505b6020821081036200027557634e487b7160e01b600052602260045260246000fd5b50919050565b601f821115620002c957600081815260208120601f850160051c81016020861015620002a45750805b601f850160051c820191505b81811015620002c557828155600101620002b0565b5050505b505050565b81516001600160401b03811115620002ea57620002ea62000133565b6200030281620002fb84546200023f565b846200027b565b602080601f8311600181146200033a5760008415620003215750858301515b600019600386901b1c1916600185901b178555620002c5565b600085815260208120601f198616915b828110156200036b578886015182559484019460019091019084016200034a565b50858210156200038a5787850151600019600388901b60f8161c191681555b5050505050600190811b01905550565b611bea80620003aa6000396000f3fe60806040526004361061014b5760003560e01c806370a08231116100b6578063c002d23d1161006f578063c002d23d14610381578063c87b56dd1461039d578063caa0f92a146103bd578063db2e21bc146103d2578063e985e9c5146103e7578063f2fde38b1461040757600080fd5b806370a08231146102d9578063715018a6146102f95780638da5cb5b1461030e57806395d89b411461032c578063a22cb46514610341578063b88d4fde1461036157600080fd5b806342842e0e1161010857806342842e0e14610229578063484b973c146102495780634fe3964f1461026957806355f804b31461027c5780636352211e1461029c5780636f9fb98a146102bc57600080fd5b806301ffc9a71461015057806306fdde0314610185578063081812fc146101a7578063095ea7b3146101df5780631249c58b1461020157806323b872dd14610209575b600080fd5b34801561015c57600080fd5b5061017061016b36600461166d565b610427565b60405190151581526020015b60405180910390f35b34801561019157600080fd5b5061019a610438565b60405161017c91906116da565b3480156101b357600080fd5b506101c76101c23660046116ed565b6104ca565b6040516001600160a01b03909116815260200161017c565b3480156101eb57600080fd5b506101ff6101fa366004611722565b6104f3565b005b6101ff610502565b34801561021557600080fd5b506101ff61022436600461174c565b610650565b34801561023557600080fd5b506101ff61024436600461174c565b6106db565b34801561025557600080fd5b506101ff610264366004611722565b6106fb565b6101ff6102773660046116ed565b610784565b34801561028857600080fd5b506101ff610297366004611814565b610926565b3480156102a857600080fd5b506101c76102b73660046116ed565b61093a565b3480156102c857600080fd5b50475b60405190815260200161017c565b3480156102e557600080fd5b506102cb6102f436600461185d565b610945565b34801561030557600080fd5b506101ff61098d565b34801561031a57600080fd5b506007546001600160a01b03166101c7565b34801561033857600080fd5b5061019a61099f565b34801561034d57600080fd5b506101ff61035c366004611878565b6109ae565b34801561036d57600080fd5b506101ff61037c3660046118b4565b6109b9565b34801561038d57600080fd5b506102cb670de0b6b3a764000081565b3480156103a957600080fd5b5061019a6103b83660046116ed565b6109d1565b3480156103c957600080fd5b506009546102cb565b3480156103de57600080fd5b506101ff610b4d565b3480156103f357600080fd5b50610170610402366004611930565b610c94565b34801561041357600080fd5b506101ff61042236600461185d565b610cc2565b600061043282610cfd565b92915050565b60606000805461044790611963565b80601f016020809104026020016040519081016040528092919081815260200182805461047390611963565b80156104c05780601f10610495576101008083540402835291602001916104c0565b820191906000526020600020905b8154815290600101906020018083116104a357829003601f168201915b5050505050905090565b60006104d582610d22565b506000828152600460205260409020546001600160a01b0316610432565b6104fe828233610d5b565b5050565b61050a610d68565b670de0b6b3a764000034101561053b5760405162461bcd60e51b81526004016105329061199d565b60405180910390fd5b600980546000918261054c836119f9565b91905055905061055c3382610d92565b60006105706007546001600160a01b031690565b6001600160a01b03163460405160006040518083038185875af1925050503d80600081146105ba576040519150601f19603f3d011682016040523d82523d6000602084013e6105bf565b606091505b505090508061060b5760405162461bcd60e51b8152602060048201526018602482015277151c985b9cd9995c881d1bc81bdddb995c8819985a5b195960421b6044820152606401610532565b604051348152829033907f3a8a89b59a31c39a36febecb987e0657ab7b7c73b60ebacb44dcb9886c2d5c8a9060200160405180910390a3505061064e6001600855565b565b6001600160a01b03821661067a57604051633250574960e11b815260006004820152602401610532565b6000610687838333610dac565b9050836001600160a01b0316816001600160a01b0316146106d5576040516364283d7b60e01b81526001600160a01b0380861660048301526024820184905282166044820152606401610532565b50505050565b6106f6838383604051806020016040528060008152506109b9565b505050565b610703610ea5565b6000818152600260205260409020546001600160a01b03161561075f5760405162461bcd60e51b8152602060048201526014602482015273546f6b656e20616c72656164792065786973747360601b6044820152606401610532565b6107698282610d92565b60095481106104fe5761077d816001611a12565b6009555050565b61078c610d68565b670de0b6b3a76400003410156107b45760405162461bcd60e51b81526004016105329061199d565b6000818152600260205260409020546001600160a01b0316156108105760405162461bcd60e51b8152602060048201526014602482015273546f6b656e20616c72656164792065786973747360601b6044820152606401610532565b61081a3382610d92565b60095481106108325761082e816001611a12565b6009555b60006108466007546001600160a01b031690565b6001600160a01b03163460405160006040518083038185875af1925050503d8060008114610890576040519150601f19603f3d011682016040523d82523d6000602084013e610895565b606091505b50509050806108e15760405162461bcd60e51b8152602060048201526018602482015277151c985b9cd9995c881d1bc81bdddb995c8819985a5b195960421b6044820152606401610532565b604051348152829033907f3a8a89b59a31c39a36febecb987e0657ab7b7c73b60ebacb44dcb9886c2d5c8a9060200160405180910390a3506109236001600855565b50565b61092e610ea5565b600a6104fe8282611a6b565b600061043282610d22565b60006001600160a01b038216610971576040516322718ad960e21b815260006004820152602401610532565b506001600160a01b031660009081526003602052604090205490565b610995610ea5565b61064e6000610ed2565b60606001805461044790611963565b6104fe338383610f24565b6109c4848484610650565b6106d53385858585610fc3565b6000818152600260205260409020546060906001600160a01b0316610a2f5760405162461bcd60e51b8152602060048201526014602482015273151bdad95b88191bd95cc81b9bdd08195e1a5cdd60621b6044820152606401610532565b6000610a396110ee565b90508051600003610b3d576040517f646174613a6170706c69636174696f6e2f6a736f6e3b6261736536342c00000060208201527f65794a755957316c496a6f6952303150546b464549434d6e4c4342306232746c603d8201527f626b6c6b4c43416e49697767496d526c63324e796158423061573975496a6f69605d8201527f5a323176626d466b4947397549475a68636d4e686333526c6369497349434a70607d8201527f6257466e5a53493649434a6f64485277637a6f764c326b756332566c5a473475609d82015273615738765a7a4d7765444d774c6e42755a794a3960601b60bd82015260d1015b604051602081830303815290604052915050919050565b610b46836110fd565b9392505050565b610b55610ea5565b4780610b9a5760405162461bcd60e51b81526020600482015260146024820152734e6f2066756e647320746f20776974686472617760601b6044820152606401610532565b6000610bae6007546001600160a01b031690565b6001600160a01b03168260405160006040518083038185875af1925050503d8060008114610bf8576040519150601f19603f3d011682016040523d82523d6000602084013e610bfd565b606091505b5050905080610c425760405162461bcd60e51b815260206004820152601160248201527015da5d1a191c985dd85b0819985a5b1959607a1b6044820152606401610532565b6007546001600160a01b03166001600160a01b03167feaff4b37086828766ad3268786972c0cd24259d4c87a80f9d3963a3c3d999b0d83604051610c8891815260200190565b60405180910390a25050565b6001600160a01b03918216600090815260056020908152604080832093909416825291909152205460ff1690565b610cca610ea5565b6001600160a01b038116610cf457604051631e4fbdf760e01b815260006004820152602401610532565b61092381610ed2565b60006001600160e01b03198216632483248360e11b1480610432575061043282611201565b6000818152600260205260408120546001600160a01b03168061043257604051637e27328960e01b815260048101849052602401610532565b6106f68383836001611251565b600260085403610d8b57604051633ee5aeb560e01b815260040160405180910390fd5b6002600855565b6104fe828260405180602001604052806000815250611357565b6000828152600260205260408120546001600160a01b0390811690831615610dd957610dd981848661136f565b6001600160a01b03811615610e1757610df6600085600080611251565b6001600160a01b038116600090815260036020526040902080546000190190555b6001600160a01b03851615610e46576001600160a01b0385166000908152600360205260409020805460010190555b60008481526002602052604080822080546001600160a01b0319166001600160a01b0389811691821790925591518793918516917fddf252ad1be2c89b69c2b068fc378daa952ba7f163c4a11628f55a4df523b3ef91a4949350505050565b6007546001600160a01b0316331461064e5760405163118cdaa760e01b8152336004820152602401610532565b600780546001600160a01b038381166001600160a01b0319831681179093556040519116919082907f8be0079c531659141344cd1fd0a4f28419497f9722a3daafe3b4186f6b6457e090600090a35050565b6001600160a01b038216610f5657604051630b61174360e31b81526001600160a01b0383166004820152602401610532565b6001600160a01b03838116600081815260056020908152604080832094871680845294825291829020805460ff191686151590811790915591519182527f17307eab39ab6107e8899845ad3d59bd9653f200f220920489ca2b5937696c31910160405180910390a3505050565b6001600160a01b0383163b156110e757604051630a85bd0160e11b81526001600160a01b0384169063150b7a0290611005908890889087908790600401611b2b565b6020604051808303816000875af1925050508015611040575060408051601f3d908101601f1916820190925261103d91810190611b68565b60015b6110a9573d80801561106e576040519150601f19603f3d011682016040523d82523d6000602084013e611073565b606091505b5080516000036110a157604051633250574960e11b81526001600160a01b0385166004820152602401610532565b805160208201fd5b6001600160e01b03198116630a85bd0160e11b146110e557604051633250574960e11b81526001600160a01b0385166004820152602401610532565b505b5050505050565b6060600a805461044790611963565b606061110882610d22565b506000828152600660205260408120805461112290611963565b80601f016020809104026020016040519081016040528092919081815260200182805461114e90611963565b801561119b5780601f106111705761010080835404028352916020019161119b565b820191906000526020600020905b81548152906001019060200180831161117e57829003601f168201915b5050505050905060006111ac6110ee565b905080516000036111be575092915050565b8151156111f05780826040516020016111d8929190611b85565b60405160208183030381529060405292505050919050565b6111f9846113d3565b949350505050565b60006001600160e01b031982166380ac58cd60e01b148061123257506001600160e01b03198216635b5e139f60e01b145b8061043257506301ffc9a760e01b6001600160e01b0319831614610432565b808061126557506001600160a01b03821615155b1561132757600061127584610d22565b90506001600160a01b038316158015906112a15750826001600160a01b0316816001600160a01b031614155b80156112b457506112b28184610c94565b155b156112dd5760405163a9fbf51f60e01b81526001600160a01b0384166004820152602401610532565b81156113255783856001600160a01b0316826001600160a01b03167f8c5be1e5ebec7d5bd14f71427d1e84f3dd0314c0f7b2291e5b200ac8c7c3b92560405160405180910390a45b505b5050600090815260046020526040902080546001600160a01b0319166001600160a01b0392909216919091179055565b6113618383611424565b6106f6336000858585610fc3565b61137a838383611489565b6106f6576001600160a01b0383166113a857604051637e27328960e01b815260048101829052602401610532565b60405163177e802f60e01b81526001600160a01b038316600482015260248101829052604401610532565b60606113de82610d22565b5060006113e96110ee565b905060008151116114095760405180602001604052806000815250610b46565b80611413846114ec565b604051602001610b26929190611b85565b6001600160a01b03821661144e57604051633250574960e11b815260006004820152602401610532565b600061145c83836000610dac565b90506001600160a01b038116156106f6576040516339e3563760e11b815260006004820152602401610532565b60006001600160a01b038316158015906111f95750826001600160a01b0316846001600160a01b031614806114c357506114c38484610c94565b806111f95750506000908152600460205260409020546001600160a01b03908116911614919050565b606060006114f98361157f565b600101905060008167ffffffffffffffff81111561151957611519611788565b6040519080825280601f01601f191660200182016040528015611543576020820181803683370190505b5090508181016020015b600019016f181899199a1a9b1b9c1cb0b131b232b360811b600a86061a8153600a850494508461154d57509392505050565b60008072184f03e93ff9f4daa797ed6e38ed64bf6a1f0160401b83106115be5772184f03e93ff9f4daa797ed6e38ed64bf6a1f0160401b830492506040015b6d04ee2d6d415b85acef810000000083106115ea576d04ee2d6d415b85acef8100000000830492506020015b662386f26fc10000831061160857662386f26fc10000830492506010015b6305f5e1008310611620576305f5e100830492506008015b612710831061163457612710830492506004015b60648310611646576064830492506002015b600a83106104325760010192915050565b6001600160e01b03198116811461092357600080fd5b60006020828403121561167f57600080fd5b8135610b4681611657565b60005b838110156116a557818101518382015260200161168d565b50506000910152565b600081518084526116c681602086016020860161168a565b601f01601f19169290920160200192915050565b602081526000610b4660208301846116ae565b6000602082840312156116ff57600080fd5b5035919050565b80356001600160a01b038116811461171d57600080fd5b919050565b6000806040838503121561173557600080fd5b61173e83611706565b946020939093013593505050565b60008060006060848603121561176157600080fd5b61176a84611706565b925061177860208501611706565b9150604084013590509250925092565b634e487b7160e01b600052604160045260246000fd5b600067ffffffffffffffff808411156117b9576117b9611788565b604051601f8501601f19908116603f011681019082821181831017156117e1576117e1611788565b816040528093508581528686860111156117fa57600080fd5b858560208301376000602087830101525050509392505050565b60006020828403121561182657600080fd5b813567ffffffffffffffff81111561183d57600080fd5b8201601f8101841361184e57600080fd5b6111f98482356020840161179e565b60006020828403121561186f57600080fd5b610b4682611706565b6000806040838503121561188b57600080fd5b61189483611706565b9150602083013580151581146118a957600080fd5b809150509250929050565b600080600080608085870312156118ca57600080fd5b6118d385611706565b93506118e160208601611706565b925060408501359150606085013567ffffffffffffffff81111561190457600080fd5b8501601f8101871361191557600080fd5b6119248782356020840161179e565b91505092959194509250565b6000806040838503121561194357600080fd5b61194c83611706565b915061195a60208401611706565b90509250929050565b600181811c9082168061197757607f821691505b60208210810361199757634e487b7160e01b600052602260045260246000fd5b50919050565b60208082526026908201527f496e73756666696369656e74207061796d656e743a2031204d4f4e41442072656040820152651c5d5a5c995960d21b606082015260800190565b634e487b7160e01b600052601160045260246000fd5b600060018201611a0b57611a0b6119e3565b5060010190565b80820180821115610432576104326119e3565b601f8211156106f657600081815260208120601f850160051c81016020861015611a4c5750805b601f850160051c820191505b818110156110e557828155600101611a58565b815167ffffffffffffffff811115611a8557611a85611788565b611a9981611a938454611963565b84611a25565b602080601f831160018114611ace5760008415611ab65750858301515b600019600386901b1c1916600185901b1785556110e5565b600085815260208120601f198616915b82811015611afd57888601518255948401946001909101908401611ade565b5085821015611b1b5787850151600019600388901b60f8161c191681555b5050505050600190811b01905550565b6001600160a01b0385811682528416602082015260408101839052608060608201819052600090611b5e908301846116ae565b9695505050505050565b600060208284031215611b7a57600080fd5b8151610b4681611657565b60008351611b9781846020880161168a565b835190830190611bab81836020880161168a565b0194935050505056fea2646970667358221220ab0a3f4c13697fa730495ab950da3a9f4fff320e40ced6f460913187ae6ef73b64736f6c63430008140033",
  "linkReferences": {},
  "deployedLinkReferences": {}
}